:020000040000FA
:10200000BFEF3EF0FFFFFFFFFFFFFFFFFFFFFFFF00
:10201000FFFFFFFFFFFFFFFFFFFFFFFFFFFFFFFFD0
:10202000FFFFFFFFFFFFFFFFFFFFFFFFFFFFFFFFC0
:10203000FFFFFFFFFFFFFFFFFFFFFFFFFFFFFFFFB0
:107D4000FFFFFFFFFFFFFFFFFFFFFFFFFFFFFFFF43
:107D5000FFFFFFFFFFFFFFFFFFFFFFFFFFFFFFFF33
:107D6000FFFFFFFFFFFFFFFFFFFFFFFFFFFFFFFF23
:107D7000FFFFFFFFFFFFFFFFFFFFFFFFFFFF000110
:107D8000F0EF3EF0FE0EBB6E000EBC6E9E92060E35
:107D9000BA6E12001DEC3FF0E0EC3EF0D3EC3EF08A
:107DA000C2EC3EF012001C0EBD6E000EB66E800ED0
:107DB000B76E010EB96E000EBF6E7F0EBE6E120062
:107DC000700ED36E000ED26E800E9B6E000EB56EDE
:107DD000D2AEEDEF3EF0EFEF3EF0E8EF3EF01200F6
:107DE000CAEC3EF08A808A928A943DEC3FF08A90F9
:107DF0008A828A943DEC3FF08A908A928A843DEC94
:107E00003FF0F2EF3EF000EF10F001C003F002C0CF
:107E100004F0D89004320332D89004320332035075
:107E2000BE6E01C003F0030E0316033AF00E0316F4
:107E3000BD50CF0B0310BD6E1200000E8D6E000EF4
:107E40008C6E000E896E000E8A6E000E8B6E070E11
:107E5000966E9268F80E936EC30E946E95680F013D
:107E60005E69C40E5D6F380E5C6F070E5F6F2F0E7C
:107E70005B6F000E856EF18E1200000E076E000E15
:107E8000066E06C001F007C002F005EC3FF04E0E92
:107E9000056EEB0EE82EFED7052EFCD700F0064A45
:107EA000072A07BE5CEF3FF0075008E10628D8A07C
:107EB0005CEF3FF05EEF3FF041EF3FF0000E096EE8
:107EC000086808C001F009C002F005EC3FF04E0E52
:107ED000056EEB0EE82EFED7052EFCD700F0080647
:107EE000D8A0090609BE7FEF3FF0095006E108045B
:107EF000D8B07DEF3FF07FEF3FF061EF3FF0120031
:020000040030CA
:0400000003285F3C36
:0200060081FF78
:020000040020DA
:080000000A05040500000000E0
:00000001FF
