:020000040000FA
:1020000000EF3FF0FFFFFFFFFFFFFFFFFFFFFFFFBE
:10201000FFFFFFFFFFFFFFFFFFFFFFFFFFFFFFFFD0
:107E0000000118EF3FF0FE0ECB6E000ECC6E060E9A
:107E1000CA6E0C0EBD6ECA8412000F0EC112000E87
:107E20008B6E000E8A6E93909392939494941200AA
:107E30000DEC3FF003EC3FF0010E8A6E44EC3FF096
:107E4000020E8A6E44EC3FF0040E8A6E44EC3FF062
:107E50001CEF3FF000EF10F001C003F002C004F08F
:107E6000D89004320332D890043203320350BE6EED
:107E700001C003F0030E0316033AF00E0316BD50C3
:107E8000CF0B0310BD6E1200000E076E000E066EC3
:107E900006C001F007C002F02CEC3FF0200E056E8A
:107EA0002A0EE82EFED7052EFCD7064A072AFC0E1E
:107EB000065C030E0758D8A060EF3FF062EF3FF07A
:107EC00048EF3FF0030E076EFC0E066E06C001F091
:107ED00007C002F02CEC3FF0200E056E2A0EE82EB3
:107EE000FED7052EFCD70606D8A0070606500710B9
:107EF000D8A47DEF3FF07FEF3FF066EF3FF0120038
:020000040030CA
:06000000000E181EFF8136
:020000040020DA
:080000000E050F0D00000000C9
:00000001FF
